:020000040000FA
:200000000C9434000C9451000C9451000C9451000C9451000C94DA050C940B060C94510027
:200020000C9451000C9451000C9451000C9451000C94E6050C9451000C9451000C9451009E
:200040000C94D0050C9451000C9451000C9451000C9451000C9451000C9451000C94510094
:200060000C9451000C94510011241FBECFEFD4E0DEBFCDBF11E0A0E0B1E0E0EAFCE002C087
:2000800005900D92A431B107D9F711E0A4E1B1E001C01D92A436B107E1F70E941E050C9489
:2000A0004F060C940000F89480E8809361001092610015BCA89A16BC33241092160183E286
:2000C0008093800088E18093810088EF9AE2909389008093880088E592E090938B008093B6
:2000E0008A0080916F00846080936F0086B3856086BB80916E00816080936E00A89A28984E
:20010000209A289A24982C9A1AB88FEF8BB988E0882E82E08093020182ED9FE090930101A4
:200120008093000180EF91E009C021E08F3F920720F4DC010E2E0E943E060196E82FE05F9A
:20014000F0E0ED5FFE4FE081EE2379F7AFEFB1E00E2E0E943E067894289815BCA89A16BC52
:2001600033241092160182E085BD90E0A895A89A16BC33241092160102C03092160180914E
:2001800016018B3ED0F39F5F953081F715BCA89A16BC332410921601289A229A0895A89534
:2001A00015BCA89A16BC33241092160182E085BD60911501E0E020E030E038C0A895A89A58
:2001C00016BC33241092160170E017C03092160189B190E0022E02C0959587950A94E2F7E4
:2001E00080FF02C0709116018091160190E0871B9109429710F05F5F04C0809116018C3E85
:2002000028F3533058F081E090E0022E02C0880F991F0A94E2F7682BEF5F03C04F5F4530A8
:2002200069F62F5F3F4F2830310519F050E040E0C5CF609315018E2F90E0089524E130E0E0
:2002400082ED9FE0D9010C010E944A062E5F3F4F80E02A323807A1F78AE290E022E0DC016E
:20026000022E0E943E06019630E085339307B1F72093020182ED9FE09093010180930001EA
:2002800008950F931F93CF93DF93A8954AE250E0EA018A01DA010E943106E02D6E2F70E0DC
:2002A0009801F0E0D9010E943106802D90E08617970709F4FF5F2F5F3F4F80E0253338075C
:2002C00089F7F630A0F06830710508F060C0E0930201FB3008F05EC0DE010E2E0E943E060A
:2002E0002196F0E0C533DF0709F454C0F5CF4F5F5F4F20E04533520769F649C0D9010E94B3
:200300003906BF01CE0110E0DC010E943906E617F70709F41F5F0296F0E08A329F07A1F789
:20032000163070F1CB0188549D40895E934088F470930101609300011B3088F5DA010B01B3
:200340000E944A064E5F5F4F80E04A32580739F1F5CFCB0180549640895E9340C0F4709340
:200360000101609300011B30D0F4DA010B010E944A064E5F5F4FF0E04A325F0781F0F5CF5D
:200380002E5F3F4F80E02A32380709F0B7CF0E941E0105C044E150E09A01EA01AFCFDF9179
:2003A000CF911F910F910895A895909168009B7F90936800282F81E090E0022E02C0880FD4
:2003C000991F0A94E2F780936D00DA9A66248091680084608093680015BCA89A16BC33245C
:2003E0001092160182E085BDDA9A40E050E060E030921601809116018B3E18F080E090E0FA
:2004000008956620A9F3662489B190E0022E02C0959587950A94E2F780FF03C0A20161E014
:20042000E7CF662329F3C201841B950B15BCA89A16BC33241092160108950F931F9315BCA8
:20044000A89A16BC33241092160182E085BD00E0A895A89A16BC33241092160140E0202F24
:2004600015C03092160189B190E0022E02C0959587950A94E2F780FF02C04091160180913B
:20048000160190E0841B9109429740F4809116018C3E38F30F5F0830D0F6DACF10E0802FBE
:2004A0000E94D401815496408F5E9A40B8F71F5F1330A8F31F910F9108950F931F93CF93A5
:2004C000DF93A89515BCA89A16BC33241092160182E085BD90E0309216011C9B02C090E0A2
:2004E00001C09F5F809116018C3E08F0EDC0943608F0E1C0F0CF8091150182FFAFC082E00B
:20050000809302012AE230E080910201D901082E0E943E062F5F3F4F40E02533340759F186
:20052000F3CF813009F09AC080911501482F50E020E030E0CA01022E02C0959587950A9476
:20054000E2F780FF11C0209302012AE230E080910201D901082E0E943E062F5F3F4F80E01A
:200560002533380741F0F3CF2F5F3F4F2830310509F474C0DFCFA895C0E0D0E010E000E00B
:20058000809102010E94D4019C0180549640815F9A4018F4C20FD31F0F5F1F5F1A3081F752
:2005A000602F70E0CE010E941D06A895CB0188549D40895E934080F424E130E06E5C7F4F2B
:2005C000D9010B010E944A062E5F3F4F40E02A32340709F477C0F4CFCB0180549640895E1D
:2005E000934008F03BC024E130E062537040D9010B010E944A062E5F3F4F40E02A32340711
:2006000009F460C0F4CF289A90E0A89515BCA89A16BC33241092160182E085BD02C030926E
:200620001601809116018B3ED0F39F5F933069F7289890E0A89515BCA89A16BC3324109283
:20064000160182E085BD02C030921601809116018B3ED0F39F5F9E3169F7D5CF0E941E01FE
:20066000289A90E0A89515BCA89A16BC33241092160182E085BD02C03092160180911601AF
:200680008B3ED0F39F5F9E3169F7289890E0A89515BCA89A16BC33241092160182E085BD9B
:2006A00002C030921601809116018B3ED0F39F5F933069F7D5CFA89580911401823008F019
:2006C0001ACF2FCF2C989FCFDF91CF911F910F910895A89588EB9BE090935301809352013C
:2006E000909355018093540120ED37E03093570120935601909359018093580130935B01C8
:2007000020935A0130935D0120935C0130935F0120935E01309361012093600188EF9AE239
:2007200090936301809362010895CF92DF92EF92FF920F931F93CF93DF93CDB7DEB76897FB
:200740000FB6F894DEBF0FBECDBF882309F058C118C010925101E9E1F1E0119221E0E13277
:20076000F207D9F715BCA89A16BC33241092160182E085BD99B180911501B92EB822DA9A71
:200780006624A89570911501972E60E08E010F5F1F4FDE0151962EC06620F1F3F894A201BE
:2007A0006624DA9A89B1A82E78948921A82E382F3B2501F1F80121E0822F8323A1F0822F53
:2007C0008A2121F051834083622B0DC0822F862351F0822F80959822808191817A01E81AC1
:2007E000F90AF182E0823296EA17FB0711F0220FE3CFBA2C992081F615BCA89A16BC332420
:200800001092160182E085BD80911801882351F080916000806480936000A89510921801A5
:2008200099249A94872F90E0988F8F8B80910201E82FF0E08F89988D0E2E02C095958795EA
:200840000A94E2F780FF20C09920F1F4EE0FFF1FEC0FFD1F21813281C901815496408F5E3B
:200860009A4090F48091000190910101BBE0893B9B0720F02817390738F003C08217930737
:2008800018F099249A94CBC080911701882309F0C6C0992009F0C3C040915101FE01319669
:2008A000FC8BEB8B39E1C32E31E0D32EE42EFF24EE0CFF1C81E291E0E80EF91E9A8B898BBA
:2008C0001E8A1D8A8F89988D0D8802C0959587950A94E2F780FF70C0AB89BC890D911C9105
:2008E000C801815496408F5E9A4008F065C0E989FA8980819181009719F4C80161E003C027
:20090000800F911F62E0E989FA89228133812115310519F0820F931F6F5FE989FA892481EA
:2009200035812115310519F0820F931F6F5F70E00E941D06D7010D931C93ED89FE89EE0F45
:20094000FF1FEE5AFE4F808191810A966817790730F4808191810A978617970728F0718313
:200960006083F601108228C08081918101968017910750F4D6018C9187FD1C92D6018C91EC
:2009800085308CF08F5F13C08081918101970817190780F4D6018C9118160CF41C92D60160
:2009A0008C918D3F1CF47183608306C08150F601808302C0D6011C92ED89FE893196FE8B42
:2009C000ED8B8B899C8902969C8B8B8B0894C11CD11CA6E0B0E0EA0EFB1EE989FA89369643
:2009E000FA8BE98B8D899E89089709F06BCF842F8F5F80935101833090F0109251010FC0F3
:200A0000E1E2F1E0118210821782168215861486329691E0E133F90709F49BCEF3CF689644
:200A20000FB6F894DEBF0FBECDBFDF91CF911F910F91FF90EF90DF90CF900895F8E1FF2ED0
:200A40000FB6F894F0926000109260000FBE08E110E08DE00FB6F894A895009360000FBE00
:200A600080936000A8950E9453000E9441010E9469030E941D020E94CF00809314010E94E3
:200A80005D0281E0809317010FB6F894F0926000109260000FBE89E00FB6F894A8950093DF
:200AA00060000FBE8093600080916000806480936000A895809168008B7F80936800809182
:200AC000150180936D00DA9A662480916800846080936800EE24E5E0FE2E5FC0EE24809165
:200AE0001701882311F081E001C080E00E9495030F5F0F1528F085B191E0892785B900E057
:200B000080911701992059F5882341F31F5F153028F3809181008D7F80938100109285008F
:200B20001092840078E0872E88EF9AE2909389008093880088E592E090938B0080938A001E
:200B400086B3856086BB8091810082608093810010921701EE2465E0F62E00E0C0CF8823DF
:200B6000E9F4E39424E02E15C8F481E0809317018091810081FF07C080918400909185007E
:200B800085599240C8F3809181008D7F8093810086B3856086BB50E1F52E00E010E09FCFC7
:200BA0007FB63394DB9B04C022242101632CDB9A7FBE189526B47FB6A89B03C02224339487
:200BC000A89A2101662463947FBE189578941F920F920FB60F9211248F939F93EF93FF93E5
:200BE000882D8F5F882E893008F08824E82DF0E0EE0FFF1FEE5AFE4F8081918190938900EB
:200C000080938800FF91EF919F918F910F900FBE0F901F9018951F920F920FB60F92112485
:200C20008F9381E0809318016624639499248F910F900FBE0F901F901895AA1BBB1B51E173
:200C400007C0AA1FBB1FA617B70710F0A61BB70B881F991F5A95A9F780959095BC01CD0179
:200C60000895F999FECFB2BDA1BDF89A119600B40895F7DFE02DF5DFF02D0895F999FECF51
:200C8000B2BDA1BD00BC11960FB6F894FA9AF99A0FBE0895F3DF012CF1DF11240895FFCFD3
:140CA000D20F02536572766F3270706D2056342E3330000094
:203800000C94341C0C94511C0C94511C0C94511C0C94511C0C94511C0C94511C0C94511C5D
:203820000C94511C0C94511C0C94511C0C94511C0C94511C0C94511C0C94511C0C94511C20
:203840000C94511C0C94511C0C94511C0C94511C0C94511C0C94511C0C94511C0C94511C00
:203860000C94511C0C94511C11241FBECFEFD4E0DEBFCDBF11E0A0E0B1E0E2E3FFE302C016
:2038800005900D92A239B107D9F712E0A2E9B1E001C01D92A531B107E1F70E94C01D0C948E
:2038A000981F0C94001CF999FECF92BD81BDF89A80B599270895982F8091C00085FFFCCF9E
:2038C0009093C6008091C00085FFFCCF089585B191E0892785B91092850010928400B19A15
:2038E00005C0B19B03C080E090E008958091C00087FFF7CF8091C60099270895CF93DF9362
:20390000EC018DE00E945B1C8AE001C021960E945B1C88818823D1F7DF91CF9108952F928F
:203920003F924F925F926F927F928F929F92AF92BF92CF92DF92EF92FF920F931F93CF9354
:20394000DF936DE7A62E61E0B62E55E6C52E51E0D52E45E9E42E41E0F42E32E0232E312C03
:203960002E0C3F1C22E6622E21E0722E94E0492E91E0592E8CE0882E81E0982EE9C0809193
:20398000C6008091C600C5010E947E1C0E94671C182F8823D9F30E945B1C113411F01136FF
:2039A00059F50E94671C182F882381F30E945B1C143511F0143751F7C0E0D0E00C2F0E940B
:2039C000671C182F0E945B1CCB30D10509F4BDC01D3011F01A3041F4E02FFF27EB56FE4F29
:2039E0001082CC2399F20DC0FE01EB56FE4F10832196112359F2E2CF1A3029F21D3031F60E
:203A0000C2CF0F3F09F4A4C0C7010E94541F1092940180919501823509F44BC0873521F01F
:203A2000893409F092C078C080919601853459F0863439F0823409F088C0F10127E01FEFBB
:203A400006C081E001C082E08093940181C08081803351F481E090E0022E02C0880F991F28
:203A60000A94E2F780951823215031962F3F79F710929F0142E050E0B701812F99270E940B
:203A80005E1FC7010E947E1C80E091E00E947E1C0E94671C893511F0893749F489E0E1E08D
:203AA000F0E0012E80935700E895C3014FC0C2014DC080919601853409F1863420F482349E
:203AC00009F043C006C0883491F08C3409F03DC007C089E0E1E0F0E080935700849114C01D
:203AE00089E0E0E0F0E08093570084910DC089E0E3E0F0E080935700849106C089E0E2E015
:203B0000F0E080935700849142E050E0B70199270E945E1FC7011AC08DE00E945B1C8AE0DB
:203B20000E945B1CC0EED1E0CE0121960E94531C982F81508E3F18F4892F0E945B1C82E0D2
:203B4000C030D80789F7C40101C0C6010E947E1C80919401882309F412CFDF91CF911F91DE
:203B60000F91FF90EF90DF90CF90BF90AF909F908F907F906F905F904F903F902F900895E6
:203B8000CFEFD4E0DEBFCDBF23982B9A85E39CE090938900809388008DE0809381000E943C
:203BA000671C1B9B02C00C9400001092C00088E18093C10086E08093C2001092C50087E6BC
:203BC0008093C4005098589A519A209A289A10929401109281000E948F1C83E391E00E94AD
:203BE0007E1C85E39CE090938900809388008DE08093810083E40E945B1C0E94671C8130A9
:203C0000C9F788249924442433242224AA24BB246624772443940E94671C182F0E94671C3C
:203C2000212F3327A901480F511D4F3F510519F064E0D62E01C0DD24842D9927019728172C
:203C4000390711F452E0D52A141511F081E0D82A85010B561E4F50E8C52EEE24FF240E940B
:203C6000671CF80180839927982F88278E259F2538E0532EEC01CC0FDD1F97FF04C081E2FE
:203C800090E1C827D9275A94CE01A1F7CA940F5F1F4F7E01CC2019F740E850E0A40EB51EDD
:203CA0000E94671C082F0E94671C282F11278D2F99270817190731F4822F9927D0708C17C0
:203CC0009D0711F058E0D52ADD2081F033944A9480E89FEFA80EB91E93E09D1510F485E1E3
:203CE000A2C0E1E0DE1609F4B6C09CC080919401813009F06AC063C0F1E88F16F7E39F0644
:203D000008F0A7C0AC2DBB2770E007B600FCFDCFF999FECFEC2DFF2761E0472F5527EB56A2
:203D2000FE4F81819927982F882720813327822B932BFA010C0160935700E8951124F2E0C2
:203D4000CF0E7E5F77FFE1CF07B600FCFDCFF999FECF83E0F40180935700E89507B600FCA7
:203D6000FDCFF999FECF85E0F40180935700E89507B600FCFDCFF999FECF81E18093570027
:203D8000E89520E030E0C22FDD27CE01880D991DFC019491CA0FDB1FCB56DE4F888198178C
:203DA00009F059C02F5F3F4F2038310561F740E850E0840E951E80E89FEFA80EB91E90E857
:203DC000A916B10408F098CF2DC080919401823049F5C0E0D0E020C0F0E06F16F2E07F06B1
:203DE00018F02224239417C0FF27EB56FE4F1081F999FECF1FBA72BC61BC10BD0FB6F89401
:203E0000FA9AF99A0FBEC3010E94531C811719F50894611C711C2196EC2FC038D105E1F616
:203E2000AA24BB2486E00E945B1C49E0431598F00E94671C843009F0EDCE85E10E945B1C41
:203E40000E94671C843039F486E00E945B1C10E00AC02224239488E10E945B1C53945AE083
:203E60005516C9F711E08091C1008F7E8093C10089E09DE390938900809388000E94671C1E
:203E80008091C10080618093C100222019F080E591E007C0112319F085E691E002C08BE667
:203EA00091E00E947E1C92CEDC016C9161566A3108F0605E6F5B6D93C1F70895FB019F0158
:203EC000423074F0453264F4642F77270E94841F805D8A330CF0895D8193CB010097A1F73C
:203EE0001082C9010C94741FDC01FC01672F71917723E1F7329704C07C916D9370836291CF
:203F0000AE17BF07C8F30895AA1BBB1B51E107C0AA1FBB1FA617B70710F0A61BB70B881FE2
:203F2000991F5A95A9F780959095BC01CD010895FFCF592F4E0041626F7274656400426FC2
:203F40006F744C6F616465722056332E320D0A43687269732045667374617468696F7520B2
:203F600032303039005354415254205448452058204D4F44454D205452414E534645520D4B
:203F80000A004572726F72206D656D6F72792066756C6C004F4B004552524F520075706414
:203FA000617465207375636365737366756C0028415457463D777269746520666C61736877
:043FC000293E000096
:0400000500003800BF
:00000001FF
