:103800000C94341C0C94511C0C94511C0C94511CA1
:103810000C94511C0C94511C0C94511C0C94511C74
:103820000C94511C0C94511C0C94511C0C94511C64
:103830000C94511C0C94511C0C94511C0C94511C54
:103840000C94511C0C94511C0C94511C0C94511C44
:103850000C94511C0C94511C0C94511C0C94511C34
:103860000C94511C0C94511C11241FBECFEFD4E0BA
:10387000DEBFCDBF11E0A0E0B1E0E2E3FFE302C0B4
:1038800005900D92A239B107D9F712E0A2E9B1E093
:1038900001C01D92A531B107E1F70E94C01D0C9433
:1038A000981F0C94001CF999FECF92BD81BDF89A27
:1038B00080B599270895982F8091C00085FFFCCF8F
:1038C0009093C6008091C00085FFFCCF089585B11C
:1038D00091E0892785B91092850010928400B19AF1
:1038E00005C0B19B03C080E090E008958091C000C6
:1038F00087FFF7CF8091C60099270895CF93DF9374
:10390000EC018DE00E945B1C8AE001C021960E94C0
:103910005B1C88818823D1F7DF91CF9108952F9286
:103920003F924F925F926F927F928F929F92AF924F
:10393000BF92CF92DF92EF92FF920F931F93CF939C
:10394000DF936DE7A62E61E0B62E55E6C52E51E059
:10395000D52E45E9E42E41E0F42E32E0232E312C21
:103960002E0C3F1C22E6622E21E0722E94E0492E9E
:1039700091E0592E8CE0882E81E0982EE9C080914C
:10398000C6008091C600C5010E947E1C0E94671C73
:10399000182F8823D9F30E945B1C113411F01136C3
:1039A00059F50E94671C182F882381F30E945B1C25
:1039B000143511F0143751F7C0E0D0E00C2F0E94FD
:1039C000671C182F0E945B1CCB30D10509F4BDC0C9
:1039D0001D3011F01A3041F4E02FFF27EB56FE4F57
:1039E0001082CC2399F20DC0FE01EB56FE4F1083DE
:1039F0002196112359F2E2CF1A3029F21D3031F607
:103A0000C2CF0F3F09F4A4C0C7010E94541F1092F7
:103A1000940180919501823509F44BC0873521F0DE
:103A2000893409F092C078C080919601853459F0AC
:103A3000863439F0823409F088C0F10127E01FEFA5
:103A400006C081E001C082E08093940181C0808142
:103A5000803351F481E090E0022E02C0880F991F5C
:103A60000A94E2F780951823215031962F3F79F779
:103A700010929F0142E050E0B701812F99270E94E8
:103A80005E1FC7010E947E1C80E091E00E947E1CA8
:103A90000E94671C893511F0893749F489E0E1E01B
:103AA000F0E0012E80935700E895C3014FC0C2019A
:103AB0004DC080919601853409F1863420F482341A
:103AC00009F043C006C0883491F08C3409F03DC041
:103AD00007C089E0E1E0F0E080935700849114C0D2
:103AE00089E0E0E0F0E08093570084910DC089E028
:103AF000E3E0F0E080935700849106C089E0E2E0C3
:103B0000F0E080935700849142E050E0B70199279C
:103B10000E945E1FC7011AC08DE00E945B1C8AE0F4
:103B20000E945B1CC0EED1E0CE0121960E94531C86
:103B3000982F81508E3F18F4892F0E945B1C82E0E1
:103B4000C030D80789F7C40101C0C6010E947E1C9D
:103B500080919401882309F412CFDF91CF911F91B6
:103B60000F91FF90EF90DF90CF90BF90AF909F901C
:103B70008F907F906F905F904F903F902F9008951F
:103B8000CFEFD4E0DEBFCDBF23982B9A85E39CE036
:103B900090938900809388008DE0809381000E943B
:103BA000671C1B9B02C00C9400001092C00088E1AF
:103BB0008093C10086E08093C2001092C50087E622
:103BC0008093C4005098589A519A209A289A10923B
:103BD0009401109281000E948F1C83E391E00E9467
:103BE0007E1C85E39CE090938900809388008DE0A3
:103BF0008093810083E40E945B1C0E94671C8130DB
:103C0000C9F788249924442433242224AA24BB24D9
:103C10006624772443940E94671C182F0E94671C17
:103C2000212F3327A901480F511D4F3F510519F08E
:103C300064E0D62E01C0DD24842D99270197281732
:103C4000390711F452E0D52A141511F081E0D82A71
:103C500085010B561E4F50E8C52EEE24FF240E940E
:103C6000671CF80180839927982F88278E259F2528
:103C700038E0532EEC01CC0FDD1F97FF04C081E22A
:103C800090E1C827D9275A94CE01A1F7CA940F5FB3
:103C90001F4F7E01CC2019F740E850E0A40EB51E5E
:103CA0000E94671C082F0E94671C282F11278D2F48
:103CB00099270817190731F4822F9927D0708C178C
:103CC0009D0711F058E0D52ADD2081F033944A9405
:103CD00080E89FEFA80EB91E93E09D1510F485E1D2
:103CE000A2C0E1E0DE1609F4B6C09CC08091940148
:103CF000813009F06AC063C0F1E88F16F7E39F06D0
:103D000008F0A7C0AC2DBB2770E007B600FCFDCFC4
:103D1000F999FECFEC2DFF2761E0472F5527EB5691
:103D2000FE4F81819927982F882720813327822B66
:103D3000932BFA010C0160935700E8951124F2E0EF
:103D4000CF0E7E5F77FFE1CF07B600FCFDCFF9997C
:103D5000FECF83E0F40180935700E89507B600FC9E
:103D6000FDCFF999FECF85E0F40180935700E895E7
:103D700007B600FCFDCFF999FECF81E18093570093
:103D8000E89520E030E0C22FDD27CE01880D991D97
:103D9000FC019491CA0FDB1FCB56DE4F8881981728
:103DA00009F059C02F5F3F4F2038310561F740E8D7
:103DB00050E0840E951E80E89FEFA80EB91E90E893
:103DC000A916B10408F098CF2DC0809194018230DB
:103DD00049F5C0E0D0E020C0F0E06F16F2E07F06C9
:103DE00018F02224239417C0FF27EB56FE4F1081B2
:103DF000F999FECF1FBA72BC61BC10BD0FB6F89422
:103E0000FA9AF99A0FBEC3010E94531C811719F543
:103E10000894611C711C2196EC2FC038D105E1F685
:103E2000AA24BB2486E00E945B1C49E0431598F05D
:103E30000E94671C843009F0EDCE85E10E945B1C76
:103E40000E94671C843039F486E00E945B1C10E0FD
:103E50000AC02224239488E10E945B1C53945AE0F8
:103E60005516C9F711E08091C1008F7E8093C10083
:103E700089E09DE390938900809388000E94671CED
:103E80008091C10080618093C100222019F080E5FB
:103E900091E007C0112319F085E691E002C08BE69E
:103EA00091E00E947E1C92CEDC016C9161566A31D9
:103EB00008F0605E6F5B6D93C1F70895FB019F0191
:103EC000423074F0453264F4642F77270E94841FD7
:103ED000805D8A330CF0895D8193CB010097A1F757
:103EE0001082C9010C94741FDC01FC01672F7191D1
:103EF0007723E1F7329704C07C916D9370836291D0
:103F0000AE17BF07C8F30895AA1BBB1B51E107C03A
:103F1000AA1FBB1FA617B70710F0A61BB70B881F59
:103F2000991F5A95A9F780959095BC01CD010895E8
:023F3000FFCFC1
:103F3200592F4E0041626F7274656400426F6F7454
:103F42004C6F616465722056332E320D0A436872DB
:103F520069732045667374617468696F75203230C5
:103F62003039005354415254205448452058204D72
:103F72004F44454D205452414E534645520D0A007E
:103F82004572726F72206D656D6F72792066756C05
:103F92006C004F4B004552524F5200757064617471
:103FA20065207375636365737366756C002841548D
:103FB20057463D777269746520666C617368293E65
:023FC2000000FD
:0400000300003800C1
:00000001FF
