:100000000C9434000C9451000C9451000C94510049
:100010000C9451000C94DB050C940C060C945100CC
:100020000C9451000C9451000C9451000C9451000C
:100030000C94E7050C9451000C9451000C94510061
:100040000C94D0050C9451000C9451000C94510068
:100050000C9451000C9451000C9451000C945100DC
:100060000C9451000C94510011241FBECFEFD4E02A
:10007000DEBFCDBF11E0A0E0B1E0E2EAFCE002C0EB
:1000800005900D92A431B107D9F711E0A4E1B1E0D8
:1000900001C01D92A436B107E1F70E941E050C9421
:1000A00050060C940000F89480E880936100109250
:1000B000610015BCA89A16BC33241092160183E285
:1000C0008093800088E1809381008CE795E1909394
:1000D0008900809388008CE291E090938B0080935C
:1000E0008A0080916F00846080936F0086B3856082
:1000F00086BB80916E00816080936E00A89A2898DC
:10010000209A289A24982C9A1AB88FEF8BB988E0F5
:10011000882E82E08093020189EE97E0909301019E
:100120008093000180EF91E009C021E08F3F9207AA
:1001300020F4DC010E2E0E943F060196E82FE05FBE
:10014000F0E0ED5FFE4FE081EE2379F7AFEFB1E035
:100150000E2E0E943F067894289815BCA89A16BCCB
:1001600033241092160182E085BD90E0A895A89AEC
:1001700016BC33241092160102C0309216018091F1
:1001800016018637D0F39F5F953081F715BCA89A8A
:1001900016BC332410921601289A229A0895A89525
:1001A00015BCA89A16BC33241092160182E085BDB6
:1001B00060911501E0E020E030E038C0A895A89AF1
:1001C00016BC33241092160170E017C0309216014D
:1001D00089B190E0022E02C0959587950A94E2F7C6
:1001E00080FF02C0709116018091160190E0871B7C
:1001F0009109099710F05F5F04C08091160187375D
:1002000028F3533058F081E090E0022E02C0880FAE
:10021000991F0A94E2F7682BEF5F03C04F5F4530E8
:1002200069F62F5F3F4F2830310519F050E040E06C
:10023000C5CF609315018E2F90E0089524E130E042
:1002400089EE97E0D9010C010E944B062E5F3F4FCB
:1002500080E02A323807A1F78AE290E022E0DC0150
:10026000022E0E943F06019630E085339307B1F7D6
:100270002093020189EE97E09093010180930001A1
:1002800008950F931F93CF93DF93A8954AE250E010
:10029000EA018A01DA010E943206E02D6E2F70E039
:1002A0009801F0E0D9010E943206802D90E0861777
:1002B000970709F4FF5F2F5F3F4F80E02533380732
:1002C00089F7F630A0F06830710508F060C0E0935F
:1002D0000201FB3008F05EC0DE010E2E0E943F06D8
:1002E0002196F0E0C533DF0709F454C0F5CF4F5F26
:1002F0005F4F20E04533520769F649C0D9010E949B
:100300003A06BF01CE0110E0DC010E943A06E61772
:10031000F70709F41F5F0296F0E08A329F07A1F702
:10032000163070F1CB01845A9640855F914088F475
:1003300070930101609300011B3088F5DA010B0115
:100340000E944B064E5F5F4F80E04A32580739F1FA
:10035000F5CFCB0180529340855F9140C0F47093FC
:100360000101609300011B30D0F4DA010B010E94FF
:100370004B064E5F5F4FF0E04A325F0781F0F5CFEA
:100380002E5F3F4F80E02A32380709F0B7CF0E9436
:100390001E0105C044E150E09A01EA01AFCFDF91B0
:1003A000CF911F910F910895A895909168009B7F20
:1003B00090936800282F81E090E0022E02C0880F01
:1003C000991F0A94E2F780936D00DA9A662480916F
:1003D000680084608093680015BCA89A16BC33241A
:1003E0001092160182E085BDDA9A40E050E060E0AC
:1003F0003092160180911601863718F080E090E067
:1004000008956620A9F3662489B190E0022E02C007
:10041000959587950A94E2F780FF03C0A20161E0F9
:10042000E7CF662329F3C201841B950B15BCA89A5C
:1004300016BC33241092160108950F931F9315BC18
:10044000A89A16BC33241092160182E085BD00E004
:10045000A895A89A16BC33241092160140E0202FCC
:1004600015C03092160189B190E0022E02C0959518
:1004700087950A94E2F780FF02C0409116018091AF
:10048000160190E0841B9109099740F480911601B0
:10049000873738F30F5F0830D0F6DACF10E0802FBF
:1004A0000E94D4018152934087579540B8F71F5F4F
:1004B0001330A8F31F910F9108950F931F93CF93BB
:1004C000DF93A89515BCA89A16BC33241092160188
:1004D00082E085BD90E0309216011C9B02C090E046
:1004E00001C09F5F80911601873708F0EDC09436F8
:1004F00008F0E1C0F0CF8091150182FFAFC082E02B
:10050000809302012AE230E080910201D901082E95
:100510000E943F062F5F3F4F40E02533340759F1DB
:10052000F3CF813009F09AC080911501482F50E037
:1005300020E030E0CA01022E02C0959587950A940A
:10054000E2F780FF11C0209302012AE230E080919F
:100550000201D901082E0E943F062F5F3F4F80E025
:100560002533380741F0F3CF2F5F3F4F2830310557
:1005700009F474C0DFCFA895C0E0D0E010E000E03F
:10058000809102010E94D4019C01805293408957BE
:10059000954018F4C20FD31F0F5F1F5F1A3081F709
:1005A000602F70E0CE010E941E06A895CB01845AF0
:1005B0009640855F914080F424E130E0675E7F4F94
:1005C000D9010B010E944B062E5F3F4F40E02A32BB
:1005D000340709F477C0F4CFCB0180529340855F94
:1005E000914008F03BC024E130E069517040D901EE
:1005F0000B010E944B062E5F3F4F40E02A3234072A
:1006000009F460C0F4CF289A90E0A89515BCA89A88
:1006100016BC33241092160182E085BD02C03092D0
:100620001601809116018637D0F39F5F933069F7EA
:10063000289890E0A89515BCA89A16BC332410926F
:10064000160182E085BD02C030921601809116012C
:100650008637D0F39F5F9E3169F7D5CF0E941E0188
:10066000289A90E0A89515BCA89A16BC332410923D
:10067000160182E085BD02C03092160180911601FC
:100680008637D0F39F5F9E3169F7289890E0A89550
:1006900015BCA89A16BC33241092160182E085BDC1
:1006A00002C030921601809116018637D0F39F5F09
:1006B000933069F7D5CFA89580911401823008F066
:1006C0001ACF2FCF2C989FCFDF91CF911F910F91F1
:1006D0000895A8958CED95E0909353018093520175
:1006E000909355018093540128EE33E030935701E5
:1006F00020935601909359018093580130935B01E8
:1007000020935A0130935D0120935C0130935F0187
:1007100020935E0130936101209360018CE795E1A5
:1007200090936301809362010895CF92DF92EF92DC
:10073000FF920F931F93CF93DF93CDB7DEB76897E8
:100740000FB6F894DEBF0FBECDBF882309F058C1A5
:1007500018C010925101E9E1F1E0119221E0E1327B
:10076000F207D9F715BCA89A16BC332410921601CB
:1007700082E085BD99B180911501B92EB822DA9A2F
:100780006624A89570911501972E60E08E010F5F89
:100790001F4FDE0151962EC06620F1F3F894A2019E
:1007A0006624DA9A89B1A82E78948921A82E382F48
:1007B0003B2501F1F80121E0822F8323A1F0822F54
:1007C0008A2121F051834083622B0DC0822F862322
:1007D00051F0822F80959822808191817A01E81AC8
:1007E000F90AF182E0823296EA17FB0711F0220F34
:1007F000E3CFBA2C992081F615BCA89A16BC3324F5
:100800001092160182E085BD80911801882351F075
:1008100080916000806480936000A8951092180118
:1008200099249A94872F90E0988F8F8B8091020162
:10083000E82FF0E08F89988D0E2E02C09595879550
:100840000A94E2F780FF20C09920F1F4EE0FFF1F19
:10085000EC0FFD1F21813281C901815293408757DE
:10086000954090F48091000190910101B5E08D3D9B
:100870009B0720F02817390738F003C08217930729
:1008800018F099249A94CBC080911701882309F01D
:10089000C6C0992009F0C3C040915101FE013196B4
:1008A000FC8BEB8B39E1C32E31E0D32EE42EFF24F9
:1008B000EE0CFF1C81E291E0E80EF91E9A8B898B09
:1008C0001E8A1D8A8F89988D0D8802C095958795FF
:1008D0000A94E2F780FF70C0AB89BC890D911C912E
:1008E000C801815293408757954008F065C0E98957
:1008F000FA8980819181009719F4C80161E003C0F1
:10090000800F911F62E0E989FA89228133812115E4
:10091000310519F0820F931F6F5FE989FA892481ED
:1009200035812115310519F0820F931F6F5F70E03B
:100930000E941E06D7010D931C93ED89FE89EE0FD0
:10094000FF1FEE5AFE4F808191810A966817790742
:1009500030F4808191810A978617970728F0718378
:100960006083F601108228C08081918101968017F2
:10097000910750F4D6018C9187FD1C92D6018C9181
:1009800087308CF08F5F13C08081918101970817A9
:10099000190780F4D6018C9118160CF41C92D6011C
:1009A0008C918B3F1CF47183608306C08150F601EB
:1009B000808302C0D6011C92ED89FE893196FE8BA0
:1009C000ED8B8B899C8902969C8B8B8B0894C11C28
:1009D000D11CA6E0B0E0EA0EFB1EE989FA89369642
:1009E000FA8BE98B8D899E89089709F06BCF842F4C
:1009F0008F5F80935101833090F0109251010FC0AE
:100A0000E1E2F1E0118210821782168215861486C7
:100A1000329691E0E133F90709F49BCEF3CF689663
:100A20000FB6F894DEBF0FBECDBFDF91CF911F91FF
:100A30000F91FF90EF90DF90CF900895F8E1FF2E97
:100A40000FB6F894F0926000109260000FBE08E1BB
:100A500010E08DE00FB6F894A895009360000FBEEB
:100A600080936000A8950E9453000E9441010E945B
:100A700069030E941D020E94CF00809314010E940E
:100A80005D0281E0809317010FB6F894F092600048
:100A9000109260000FBE8AE00FB6F894A8950093FC
:100AA00060000FBE8093600080916000806480933E
:100AB0006000A895809168008B7F8093680080918A
:100AC000150180936D00DA9A662480916800846035
:100AD00080936800EE24E5E0FE2E5FC0EE24809156
:100AE0001701882311F081E001C080E00E94950386
:100AF0000F5F0F1528F085B191E0892785B900E0D7
:100B000080911701992059F5882341F31F5F153013
:100B100028F3809181008D7F809381001092850061
:100B20001092840078E0872E8CE795E190938900FD
:100B3000809388008CE291E090938B0080938A00F0
:100B400086B3856086BB809181008260809381003E
:100B500010921701EE2465E0F62E00E0C0CF882346
:100B6000E9F4E39424E02E15C8F481E080931701A2
:100B70008091810081FF07C0809184009091850061
:100B80008B549140C8F3809181008D7F80938100C8
:100B900086B3856086BB58E0F52E00E010E09FCF5D
:100BA0007FB63394DB9B05C0222423942101632C60
:100BB000DB9A7FBE189526B47FB6A89B03C022247B
:100BC0003394A89A2101662463947FBE1895789483
:100BD0001F920F920FB60F9211248F939F93EF9352
:100BE000FF93882D8F5F882E893008F08824E82DA8
:100BF000F0E0EE0FFF1FEE5AFE4F8081918190933F
:100C0000890080938800FF91EF919F918F910F90C1
:100C10000FBE0F901F9018951F920F920FB60F9254
:100C200011248F9381E080931801662463949924A2
:100C30008F910F900FBE0F901F901895AA1BBB1B92
:100C400051E107C0AA1FBB1FA617B70710F0A61BCC
:100C5000B70B881F991F5A95A9F780959095BC01ED
:100C6000CD010895F999FECFB2BDA1BDF89A1196B4
:100C700000B40895F7DFE02DF5DFF02D0895F99920
:100C8000FECFB2BDA1BD00BC11960FB6F894FA9A82
:100C9000F99A0FBE0895F3DF012CF1DF11240895B6
:020CA000FFCF84
:100CA200E90702536572766F3270706D2056342EEA
:040CB20033300000DB
:00000001FF
